:020000040800F2
:1000000048040020450100084D0100084F01000888
:1000100051010008530100085501000800000000CC
:100020000000000000000000000000005701000870
:1000300059010008000000005B0100085D01000894
:100040005F0100085F0100085F0100085F01000810
:100050005F0100085F010008BD0300085F010008A0
:100060005F010008F50400085F0100085F01000857
:100070005F0100085F0100085F0100085F010008E0
:100080005F0100085F0100085F0100085F010008D0
:100090005F0100085F0100085F0100085F010008C0
:1000A0005F010008F90E00085F0100085F01000809
:1000B0005F0100085F0100085F0100085F010008A0
:1000C0005F0100085F0100085F0100085F01000890
:1000D0005F0100085F0100085F0100085F01000880
:1000E000310400085F0100085F0100085F0100089B
:1000F0005F0100085F0100085F0100085F01000860
:100100005F0100085F0100085F0100085F0100084F
:100110005F0100085F0100085F0100085F0100083F
:100120005F0100085F0100085F0100085F0100082F
:10013000DFF80CD000F030F900480047A91400089F
:10014000480400200648804706480047FEE7FEE7CF
:10015000FEE7FEE7FEE7FEE7FEE7FEE7FEE7FEE777
:10016000990E000831010008F0B480EA0102D40FB2
:100170004200B2EB410F02D20246084611464A0045
:1001800042D0C30DDDB2C1F3C752AD1A202D35DA0E
:10019000C1F3160141F4000204B15242C5F1200638
:1001A00002FA06F12A411044B3EBD05F23D0C4B168
:1001B000012DA0EBC35009DCF0BC4FF0004202EA75
:1001C000C352DBB200F5000000F0B7B8400000F108
:1001D000807000EBC350A0F1807040EAD1704900FC
:1001E00009E0490841EAC071A0EBC35000F50000E6
:1001F000400800EBC350F0BC00F096B86142012209
:1002000002EB4101001BF6E7F0BC704781F00041B2
:10021000AAE780F00040A7E730B480EA010202F0CC
:10022000004530F0004221F0004013D090B1C30DE2
:10023000D40DC2F31601C0F31600E41A41F4000114
:1002400040F400027D34914201D3641C00E0490077
:10025000002C02DA30BC002070474FF4000000236D
:10026000914201D3891A034340084FEA4101F7D173
:1002700051B1914202D14FF0004105E002D24FF05E
:10028000010101E06FF0010103EBC450284430BCD0
:1002900000F04AB8C10F80EAE0700844CA0796230C
:1002A000002100F04AB800F0004220F00040C10DEB
:1002B000C0F3160040F400007F2901DA00207047E7
:1002C000962903DCC1F19601C84001E096398840C7
:1002D000002AF4D04042704720F00040C10DC0F326
:1002E000160040F400007F2901DA002070479629AB
:1002F00003DCC1F19601C8407047963988407047C9
:10030000002801DBC0F10040002901DBC1F1004100
:1003100081427047002801DBC0F10040002901DB69
:10032000C1F10041884270470029A8BF7047401CB6
:10033000490008BF20F00100704710B4B0FA80FCFB
:1003400000FA0CF050EA010404BF10BC704749B138
:10035000CCF1200421FA04F411FA0CF118BF0121A8
:1003600021430843A3EB0C01CB1D4FEA00614FEA88
:10037000102042BF002010BC704700EBC350104457
:100380000029A4BF10BC7047401C490008BF20F0E2
:10039000010010BC70470000064C074D06E0E06805
:1003A00040F0010394E8070098471034AC42F6D3BC
:1003B000FFF7C2FE90380008B038000810B50021E1
:1003C00016480068FFF79CFF21D815480068FFF722
:1003D00061FF04464FF08141FFF7C6FE0F490860F8
:1003E0001048006800F0010088B10F48006800F074
:1003F000010060B10D490988481CC11700EB9171DB
:100400008910A0EB8101094A118000F099FF05488D
:10041000006840F001000349086010BD240000207E
:100420000C000020140401400808014010000020C6
:100430002DE9F0412748006800F4004050B32548FA
:10044000006840F40040234908602348806800F4B5
:10045000004000283BD121480068642837DA1F4853
:10046000006814301D4908600846006801F026F94C
:100470000746FFF70FFF06461949FFF7CDFE054671
:1004800029461848FFF7C8FE0446FFF725FF16491E
:1004900008801CE00F48006800F40050B8B10D4817
:1004A000006840F400500B4908601048806800F470
:1004B000005060B90E490988C81CC11700EB917142
:1004C0008910A0EB81010A4A118000F039FFBDE8D4
:1004D000F081000014040140002001400C000020C5
:1004E0000000A04100006442282C0140001001409F
:1004F000100000202DE9F0411848006800F00800C5
:1005000048B31648006840F00800144908601448D1
:10051000006800F00800F0B91248006810F1140FEC
:1005200019DD1048006814380E4908600846006854
:1005300001F0C4F80746FFF7ADFE06460A49FFF78B
:100540006BFE054629460948FFF766FE0446FFF79D
:10055000C3FE07490880BDE8F08100001404014093
:10056000081401400C0000200000A041000064427B
:10057000282C014010B5F0234FF4A072002108464A
:1005800000F0C0FB222001F09DF800BF00BF002456
:1005900004E00648008801F09DF8641CB4F5963F1D
:1005A000F7D300BF00BF002010BD00002A000020CC
:1005B0002DE9F04781468A4614461E46089F07FBF0
:1005C00004F06421B0FBF1F7334622465146484619
:1005D00000F098FB222001F075F800BF00BF4FF03B
:1005E000000811E000250BE0BD4204D30A48008852
:1005F00001F070F803E00948008801F06BF86D1C09
:10060000A542F1D308F10108B045EBD300BF00BF0C
:100610000020BDE8F08700002A000020280000200C
:100620002DE9F05F8046894614461F46DDF828A074
:10063000D3463B4622464946404600F063FB222013
:1006400001F040F800BF00BF781E00FB04F50AE08F
:10065000002605E0A9193BF8110001F03BF8761CD3
:10066000A642F7D32D1B002DF2DA00BF00BF0020F9
:10067000BDE8F09F10B50446F0234FF4A0720021AE
:10068000084600F03FFB0021202001F027F8002160
:10069000212001F023F8222001F014F8002010BDE1
:1006A00070B5FE48806940F2ED110843FB4988614E
:1006B000FB48006800F0FF2444F0BB10F8490860D4
:1006C000081D0068F74900EA0104F7482043F4498F
:1006D000091D0860F548006820F0704444F030407F
:1006E000F24908604FF0BB30091D0860F04800680F
:1006F00020F00F0444F00B00ED490860ED4840681D
:10070000ED4900EA0104ED482043EA494860EC481D
:100710000068EB490860EA481038006820F00F04D0
:1007200044F00300E64910390860DC48406940F4B1
:100730008070DA49486140F205404107C86141F2E2
:1007400011208861322000F09DFD0026304600F027
:10075000B9FF00F0AFFF0546472D7DD10120D949F3
:1007600008700021EA2000F0B9FF2021EB2000F002
:10077000B5FF0C21EC2000F0B1FFC721ED2000F007
:10078000ADFF3821E82000F0A9FF1021E92000F09A
:10079000A5FF0121F12000F0A1FF1021F22000F0BF
:1007A0009DFF0121402000F099FF0021412000F031
:1007B00095FF0021422000F091FF1021432000F01E
:1007C0008DFF0E21442000F089FF2421452000F0F8
:1007D00085FF0421462000F081FF5021472000F0D2
:1007E0007DFF0221482000F079FF1321492000F00D
:1007F00075FF19214A2000F071FF19214B2000F0EC
:100800006DFF16214C2000F069FF1B21502000F0E5
:1008100065FF3121512000F061FF2F21522000F0AF
:100820005DFF3F21532000F059FF3F21542000F08D
:1008300055FF3E21552000F051FF2F21562000F09A
:100840004DFF7B21572000F049FF0921582000F07F
:1008500045FF0621592000E089E000F03FFF062116
:100860005A2000F03BFF0C215B2000F037FF1D21D8
:100870005C2000F033FFCC215D2000F02FFF1B2116
:10088000084600F02BFF01211A2000F027FF2F213E
:10089000242000F023FF5721252000F01FFF88218E
:1008A000232000F01BFF3621182000F017FF012144
:1008B000192000F013FF0021012000F00FFF882114
:1008C0001F2000F00BFFC82000F0DCFC82211F205D
:1008D00000F004FF322000F0D5FC92211F2000F030
:1008E000FDFE322000F0CEFCD2211F2000F0F6FEEB
:1008F000322000F0C7FC5521172000F0EFFE002148
:10090000084600F0EBFE11212F2000F0E7FE002149
:10091000312000F0E3FE0021322000F0DFFE38211C
:10092000282000F0DBFEC82000F0ACFC3C21282091
:1009300000F0D4FEA821162000F0D0FE00210E20E9
:1009400000F0CCFE00210F2000F0C8FE0121102095
:1009500000F0C4FE4021112000F0C0FE0021122052
:1009600000F0BCFE0021132000F0B8FEA9E1002039
:10097000544908704FF48071012000F0AFFE4FF42D
:10098000E061022000F0AAFE0021042000F0A6FE93
:1009900040F20721082000F0A1FE0021092000F00C
:1009A0009DFE00210A2000F099FE00210C2000F09D
:1009B00095FE00210D2000F091FE00210F2000F097
:1009C0008DFE0021102000F089FE0021112000F092
:1009D00085FE0021122000F081FE0021132000F08E
:1009E0007DFEC82000F04EFC41F2B021102000F046
:1009F00075FE0721112000F071FE322000F042FC4C
:100A000040F2BD11122000F069FE322000F03AFCE5
:100A10004FF4A051132000F061FE0E21292000F0B8
:100A20005DFE322000F02EFC0021202000F056FE5A
:100A30000021212000F052FEA5F5A840083838B169
:100A4000A0F57C50183800287DD005287CD167E0BF
:100A500040F60D31302000F041FE41F623113120E7
:100A600000F03CFE41F62641322000F037FE42F213
:100A70001C61332000F032FE42F21941342000F0B4
:100A80002DFE40F60B51352000F028FE41F2060104
:100A9000362000F023FE4FF4C26115E00010024042
:100AA0000014014000F0FF00BB0B00BB0018014028
:100AB000001C014000200140FFF0F0FF000B0B0084
:100AC0001408014030000020372000F007FE40F2FB
:100AD0000671382000F002FE4FF44171392000F019
:100AE000FDFD40F605613A2000F0F8FD40F6016199
:100AF0003B2000F0F3FD4FF487713C2000F0EEFD49
:100B000040F20E513D2000F0E9FD40F203413E204D
:100B100000F0E4FD40F207613F2000F0DFFD61E0FE
:100B20000021302000F0DAFD40F20761312000F0B2
:100B3000D5FD40F20531322000F0D0FD00213520F6
:100B400000F0CCFD01E01DE01BE041F20461362025
:100B500000F0C4FD4FF40171372000F0BFFD01210A
:100B6000382000F0BBFD40F20771392000F0B6FDDF
:100B700000213C2000F0B2FD0F213D2000F0AEFD31
:100B800030E000BF0621302000F0A8FD40F2011146
:100B9000312000F0A3FD0321322000F09FFD4FF42F
:100BA0008371352000F09AFD40F60231362000F0C6
:100BB00095FD40F20231372000F090FD40F20771C0
:100BC000382000F08BFD0721392000F087FD4FF41D
:100BD000C0613C2000F082FD40F20B213D2000F07E
:100BE0007DFD00BF00BF0021502000F077FDEF2108
:100BF000512000F073FD0021522000F06FFD40F203
:100C00003F11532000F06AFDA5F5A840083830B127
:100C1000A0F57C50183850B1052807D100E000BF7E
:100C20004FF41C51602000F059FD06E000BF4FF466
:100C30002741602000F052FD00BF00BF012161206C
:100C400000F04CFD00216A2000F048FD00218020CA
:100C500000F044FD0021812000F040FD00218220B1
:100C600000F03CFD0021832000F038FD00218420AD
:100C700000F034FD0021852000F030FD102190208F
:100C800000F02CFD0021922000F028FD032193208C
:100C900000F024FD4FF48871952000F01FFD002125
:100CA000972000F01BFD0021982000F017FD41F275
:100CB0003801032000F012FD40F23711072000F048
:100CC0000DFD4FF4807002490860002070BD0000E7
:100CD000100801400146024A1180002070470000C0
:100CE0002A000020014602480160002070470000F1
:100CF0002C0000200146024A1180002070470000AD
:100D0000280000202DE9F04704460D4616461F46F0
:100D10002648007860B3A019A0F10108E819A0F1F5
:100D20000109C4F30F21022000F0D8FCE1B2032036
:100D300000F0D4FCC8F30F21042000F0CFFC08F031
:100D4000FF01052000F0CAFCC5F30F21062000F0CA
:100D5000C5FCE9B2072000F0C1FCC9F30F2108204F
:100D600000F0BCFC09F0FF01092000F0B7FC1BE01B
:100D7000A9B2502000F0B2FCE819401E81B2512007
:100D800000F0ACFCA1B2522000F0A8FCA019401E5B
:100D900081B2532000F0A2FCA9B2202000F09EFCFA
:100DA000A1B2212000F09AFCBDE8F08730000020BD
:100DB00010B500F001F810BD0CB5002001900090B6
:100DC0003348006840F480303149086000BF304843
:100DD000006800F4003000900198401C01900098D9
:100DE00018B90198B0F5A06FF1D12948006800F456
:100DF000003010B10120009001E000200090009828
:100E0000012843D12348006840F0100021490860C0
:100E10000846006820F0030008600846006840F0BB
:100E2000020008601A48406819494860084640684E
:100E300048600846406840F4806048600846406862
:100E400020F47C1048600846406840F4E810486090
:100E50000846006840F08070086000BF0C480068D9
:100E600000F000700028F9D00948406820F0030025
:100E7000074948600846406840F00200486000BFEB
:100E80000348406800F00C000828F9D10CBD0000B0
:100E9000001002400020024010B51348006840F0E6
:100EA00001001149086008464068104908400E4991
:100EB0004860084600680E4908400B49086008462B
:100EC000006820F4802008600846406820F4FE0096
:100ED00048604FF41F008860FFF76AFF4FF0006022
:100EE0000449086010BD0000001002400000FFF837
:100EF000FFFFF6FE08ED00E010B55148008800F055
:100F00000100002873D04F480068B0F5947F07D1E6
:100F10004D480068002803DD4C480068002850DC7C
:100F200048480068B0F5947F07D14748006800281A
:100F300003DA46480068002843DB4248006838B9B5
:100F400041480068002803DA40480068002838DC7F
:100F50003C48006838B93C480068002803DD3B483D
:100F6000006800282DDB3A480068D82807D13948A6
:100F70000068002803DD35480068002821DC34487B
:100F80000068D82807D133480068002803DA2F48C2
:100F90000068002815DB2E48006838B92D48006825
:100FA000002803DA2948006800280ADC284800687D
:100FB00050B928480068002806DD24480068002849
:100FC00002DA0020214908602048006800280FDA72
:100FD0001C4800681C490968401A1A4908601C48E6
:100FE00000681C490968401A1949086012E025E0A8
:100FF0001648006800280DDD12480068124909688B
:1010000008441049086012480068124909680844F9
:101010000F490860002110480068FFF77BF907D2EC
:101020004FF07E510C480068FFF7F0F80A4908605D
:101030000348008820F001000149088010BD00002D
:10104000102C014000000020140000200C000020A3
:1010500004000020180000202400002002E008C83E
:10106000121F08C1002AFAD170477047002001E022
:1010700001C1121F002AFBD170470000594989693C
:1010800041F00101574A91611146896941F480712B
:1010900091615549496821F0704040F08041524AC1
:1010A00051605049896941F020014E4A91614F4990
:1010B000096821F4704040F480414B4A116049496D
:1010C000896941F00401474A91614949096821F061
:1010D0000F0040F00401464A11604249896941F01D
:1010E0001001404A91614349496821F4700040F47D
:1010F0008001404A51604049096841F480714FF0D5
:10110000E022C2F804113D494969C1F30B0040F4E3
:10111000C0413A4A51613A49096841F40041384AAC
:10112000116037490C31096841F40041344A0C32EE
:1011300011604FF0E021D1F8001141F400714FF03F
:10114000E022C2F800112D498968C1F30B0040F478
:1011500040512A4A91602A49096841F00801284A09
:10116000116027490C31096841F00801244A0C320A
:1011700011604FF0E021D1F8001141F040014FF033
:10118000E022C2F800111D4989684FF6F072114043
:101190001A4A91601A49096841F00101184A116020
:1011A00017490831096841F00101154A08321160F8
:1011B000124949694FF60F7201EA020040F020011E
:1011C0000E4A51610E49096841F400510C4A116000
:1011D0000B490C31096841F40051094A0C32116085
:1011E0007047000000100240002001400014014040
:1011F000000801400010014004E100E0000001404F
:101200000004014070B51A48806940F40060184934
:1012100088611848006800F051FA0646FFF73AF86E
:10122000054629461448FEF7F7FF0446FFF754F831
:10123000124908804FF47A40091D08800F481C3875
:10124000008840F001000D491C3908800B482838FF
:10125000008840F0010009492839088008480068E2
:1012600040F000704FF0E021C1F8000170BD0000B7
:10127000001002400C00002000808E44282C014009
:1012800000E100E00949096842F21072B1FBF2F195
:10129000484305E000BF00BF00BF00BF00BF00BF64
:1012A000011EA0F10100F5D17047000034000020BC
:1012B00008B51C48008830B101280FD0022818D08A
:1012C00003282CD120E0184818230C22009017483E
:1012D000016817480068FFF7A3F920E015480C23C0
:1012E000182200901148016811480068FFF798F92A
:1012F00015E0114818230C2200900C4801680C4896
:101300000068FFF78DF90AE00C480C2318220090C2
:101310000648016806480068FFF782F900BF00BF71
:1013200008BD000010000020B01D000804000020CF
:1013300000000020F016000830190008701B00089B
:1013400070B50120514908705148008830B101281A
:1013500029D002284CD0032824D16EE000204D492A
:101360000860401E4C4908604C480068FEF792FF38
:1013700005464B4801682846FEF7F6FE0446FEF790
:1013800092FF4649086047480068FEF783FF05461C
:10139000434801682846FEF739FF0446FEF783FFFD
:1013A000404908606FE001203A49086000203A494E
:1013B00008603A480068FEF76DFF05463848016846
:1013C0002846FEF723FF0446FEF76DFF3349086009
:1013D00034480068FEF75EFF05463148016828463C
:1013E000FEF7C2FE0446FEF75EFF2E4908604AE0A3
:1013F0000020284908600120274908602748006824
:10140000FEF748FF0546264801682846FEF7ACFE71
:101410000446FEF748FF2149086022480068FEF7AD
:1014200039FF05461E4801682846FEF7EFFE0446D0
:10143000FEF739FF1B49086025E04FF0FF301549E2
:10144000086000201449086014480068FEF722FF75
:101450000546134801682846FEF7D8FE0446FEF705
:1014600022FF0E4908600F480068FEF713FF05468B
:101470000B4801682846FEF777FE0446FEF713FF87
:101480000849086000BF00BF70BD000020000020B8
:101490001000002014000020180000200000002090
:1014A0001C0000200400002008B5FFF7F9F8002018
:1014B000FFF710FC4FF6FF70FFF71CFCFFF75AF820
:1014C0007248FFF70FFC64207149086071480C23D3
:1014D00018220090084601686F480068FFF7A0F8DE
:1014E0000120FFF7C7F8FFF7C9FDFFF78BFECCE03F
:1014F0006A480078C0B36A4801686A48FEF734FE5B
:101500008046FEF7E9FE0446654801686548FEF737
:101510002BFE8046FEF7E0FE05465D480068FEF7BC
:10152000B9FE81465E4801684846FEF76FFE804678
:10153000FEF7D2FE064658480068FEF7ABFE81462D
:10154000574801684846FEF761FE8046FEF7C4FE34
:101550000746002023462A46314600903846FFF7CA
:1015600027F800204D490870FFF7A2FE4E4800689A
:1015700000281FDD4D48006800280BDD002046498B
:1015800000900968481E0C23012241490968FFF7B1
:101590000FF87AE045480068002876DA00200C232E
:1015A000012200903A4801683B4800681830FEF775
:1015B000FFFF6AE03C48006800281FDA3B480068EB
:1015C00000280BDA0020344900900968481E0C23DB
:1015D00001222F490968FEF7EBFF56E03348006807
:1015E000002852DD00200C230122009028480168C9
:1015F000294800681830FEF7DBFF46E02C480068F9
:1016000000281FDD2948006800280BDD002000901D
:101610001F480068411E01230C221F480068FEF786
:10162000C7FF32E02148006800282EDA002001239D
:101630000C22009016480168183117480068FEF720
:10164000B7FF22E01A48006800281EDA1748006831
:1016500000280BDA002000900D480068411E01238D
:101660000C220D480068FEF7A3FF0EE00F4800684B
:1016700000280ADD002001230C22009004480168A4
:10168000183105480068FEF793FF31E7703800080D
:1016900004000020F01600080000002020000020B8
:1016A0001C0000200000C041140000200C0000209D
:1016B000180000204FF0D84040887047002800DA1A
:1016C000404270474FF0D841088070474FF0D841F2
:1016D000488070474FF0D8414880704770B5054644
:1016E0000C462846FFF7EEFF2046FFF7EFFF70BDE0
:1016F000A310220043528483049C449C249C449C59
:10170000249CE493C38BC38BA383049444A4036BF2
:10171000437BC48B44A444A4C48B635200000000E8
:10172000E49344C5C4DD24EE44EE44F6E4DDA4AC09
:1017300004940494249C249C049C84ACA4D5C4DD0F
:10174000C4DD04E644EE44EE24EE84CDE36A0000FA
:1017500044CDA4FEC4FEA4FE84CD84D504BD447B48
:10176000E46A2473647BE493A4AC64A48483E46A91
:10177000447BA4D564F6C4DDA4D544EE447B630861
:10178000C4DDC4FE64CD24736452447B64F6A4FEBD
:1017900084FE84FEA4FEC4FEC4FE647B8431A439AE
:1017A0008431A48364F604E624C5C4DD64CDA48B2F
:1017B000E4E584F6E46A84318431A46264F6C4FE0C
:1017C000A4FEA4FEA4FEA4FEA4FE447BA439A43976
:1017D000A439645A44EEC4FE84FE64F644EE44C563
:1017E00004E604E6244AA439A439C46264F6C4FEBB
:1017F000A4FEA4FEA4FEA4FEA4FE447BA439A43946
:10180000A439244AE4DDC4FEA4FEA4FEA4FEE4DD63
:1018100004E604E6244AA439A439C46264F6C4FE8A
:10182000A4FEA4FEA4FEA4FEA4FE447BA439A43915
:10183000A439244AE4DDC4FEA4FEA4FEA4FEE4DD33
:10184000E4E584F6E46A84318431A46264F6C4FE7B
:10185000A4FEA4FEA4FEA4FEA4FE447BA439A439E5
:10186000A439645A44EEC4FE84FE64F644EE44C5D2
:10187000C4DDC4FE64CD24736452447B64F6A4FECC
:1018800084FE84FEA4FEC4FEC4FE647B8431A439BD
:101890008431A48364F604E624C5C4DD64CDA48B3E
:1018A00044CDA4FEC4FEA4FE64CD84D504BD447B17
:1018B000E46A2473647BE493A4AC64A48483E46A40
:1018C000447BA4D564F6C4DDA4D544EE447B630810
:1018D000E49344C5C4DD24EE44EE44F6E4DDA4AC58
:1018E00004940494249C249C049C84ACA4D5C4DD5E
:1018F000C4DD04E644EE44EE24EE84CDE36A000049
:10190000A310220043528483249C449C249C449C26
:10191000249CE493C38BC38BA383049444A40373D8
:10192000437BC48B44A444A4C48B635200000000D6
:10193000A310E4936331447B04BD84D584D5E4BC17
:10194000E4930300E493A3102200635AC46264CDBD
:1019500044F6C4FEA4FE44EE84CDE46A234A220089
:10196000020044C5A4FEE4E544EEC4FEA4FE64F611
:10197000E4E544EE04E60200833144EEE4DDE4BC39
:10198000A4FEA4FEC4FE84F644CD64CD64F6249C7B
:10199000C362C4FEA4DDE4DDC4FEC4FEC4FEA4FE36
:1019A000E4E5C4DD44EEE4BCE36AA4FE64F624EEA0
:1019B00024E6E4E5E4E504E644EE84F6E4E5E4BC8C
:1019C000C34144EEA4D50494845A044A044AA45A58
:1019D0000494E4DD04E6449C000084D5447B64293F
:1019E000A431A439A43984318431247324E6637B7F
:1019F0000200A4D5C462A439A439A439A439A439F5
:101A00008431E46A04E6437BA48B64CDC48B6429EF
:101A1000843184318431843184314473E4E5049425
:101A2000249C84AC84AC647B647B647B647B647B3B
:101A3000A48B64A464A484AC000044A464A4C4FE85
:101A400084FE84FE84FE84FE84FE64CD2473239C85
:101A5000A4B464A4647BE4FEC4FEC4FEC4FEC4FE5D
:101A600064F6A4AC647B249CC48B64A4E46AE4FEA6
:101A7000A4FEA4FEA4FEC4FE44EE249C848343A4DE
:101A8000A33944A4645AE4FEA4FEA4FEA4FEC4FE4A
:101A900024EEE493447B84AC232184AC6452E4FEC2
:101AA000A4FEA4FEA4FEC4FE24EEC48B447BE4BCCE
:101AB000032184D56452E4FEC4FEC4FEC4FEC4FE09
:101AC00024EE0494E49304BDE34184FE04BDE4FEEB
:101AD000A4FEA4FEA4FEA4FE64F6C4DDA4D5C4B492
:101AE000635AA4FE24C5046B845A845A845A645AE7
:101AF000E46A24C564F6C4B4A339A4FEC4DD645208
:101B00008431A439A43984316452A4DD64F6A4ACD0
:101B1000633104E684F624738431A439A439843112
:101B2000C462E4FE44EEC48B049C84D5A4FEC4DDF0
:101B3000C462A439A439E46A64CDE4FE24EE6308E7
:101B4000000004BDC4FEA4FEA4FE84FE84FEA4FE28
:101B5000C4FE84F6A4D500000000000024C584CD96
:101B6000A4D5A4D5A4D5A4D584CD04BD000000007F
:101B7000000000000200249CE4BCE4BC449C637BA5
:101B8000437B049484AC239C249C43A484ACE4BC99
:101B900004BDC4B4C4B4A4ACC48B63082200A310B5
:101BA0000000234A04E664F644EEE4E504E624E695
:101BB00004E6E4E564A42473647B8483447B447B6F
:101BC000E493A4D564F664F644EE24EEA4D5E4933D
:101BD0000300E46A44EE64CDC4DD84F6E4DD2473DE
:101BE000E46A447364A464CDA4AC249CE493C48BE1
:101BF0000494C4DD24C5A4DDE4FEE4FE84F604BD43
:101C0000E49384CDE4E544CDE4E544EE04948431EA
:101C100084318431A48B84FE64F644EE24EE24EEF9
:101C200024EE64F6E46A6452C46264CDC4FE84CDDA
:101C3000E4BC44EE64F684F6A4FE04E6A45A8431BF
:101C4000A4398431647B84FEC4FEC4FEC4FEC4FE99
:101C5000C4FEA4FE645A84318431E46AA4FEA4D58F
:101C600084D5A4FEA4FEC4FEC4FEE4E5044AA4395F
:101C7000A4398431647B84FEC4FEA4FEA4FEA4FEC9
:101C8000C4FEA4FE845AA439A439A43984FEA4D580
:101C900084D5C4FEC4FEA4FEC4FEE4E5044AA4390F
:101CA000A4398431647B84FEC4FEA4FEA4FEA4FE99
:101CB000C4FEA4FE845AA439A439A43984FEA4D550
:101CC00004BD44F644EEA4FEC4FE24E6845AA431C6
:101CD000A4398431647B84FEC4FEA4FEA4FEA4FE69
:101CE000C4FEA4FE845A84318431C462A4FEA4D507
:101CF000447B64CDE4E5E4BCE4DD24EE0494642993
:101D0000A4396429647BC4FEE4FEE4FEE4FEE4FE40
:101D1000E4FEE4FE046B64522473C4DDA4FE84CDAF
:101D20006331C462A4FEE4DDA4DD64F6A4D5447B83
:101D3000C462C48B84AC64A4647BE46A645A645255
:101D4000645204BD24C5C4DD84F6A4FEC4FE24C5CB
:101D50000000635A44C544EEC4FEA4FE44EE84D59C
:101D6000A4D564CD84AC44A464A464A444A484AC89
:101D700084D584FEA4FEA4FE04E684D504BDE493C9
:101D800000000000E36A8331C362E36AC3410000DC
:101D90000200A48B249C0000A4B4C48BA33923218B
:101DA0000321E341635AA3396331049C2200A31049
:101DB0000000000004BD84CDA4D5A4D5A4D5A4D52D
:101DC00084CD24C5000000000000A4D584F6C4FE24
:101DD000A4FE84FE84FEA4FEA4FEC4FE04BD000096
:101DE000630824EEE4FE64CDE46AA439A439C46235
:101DF000C4DDA4FE84D5049CC48B44EEE4FEC4621E
:101E00008431A439A4398431247384F604E663311F
:101E1000A4AC64F6A4DD64528431A439A4398431BD
:101E20006452C4DDA4FEA339C4B464F624C5E46AD4
:101E3000645A845A845A845A046B24C5A4FE635A93
:101E4000C4B4A4D5C4DD64F6A4FEA4FEA4FEA4FE1E
:101E5000E4FE04BD84FEE34104BDE493049424EE57
:101E6000C4FEC4FEC4FEC4FEE4FE645284D5032155
:101E7000E4BC447BC48B24EEC4FEA4FEA4FEA4FEFA
:101E8000E4FE645284AC232184AC447BE49324EECE
:101E9000C4FEA4FEA4FEA4FEE4FE645A44A4A33936
:101EA00043A48483249C44EEC4FEA4FEA4FEA4FEAA
:101EB000E4FEE46A64A4C48B249C647BA4AC64F652
:101EC000C4FEC4FEC4FEC4FEE4FE647B64A4A4B4E9
:101ED000239C247364CD84FE84FE84FE84FE84FEF1
:101EE000C4FE64A444A4000084AC64A464A4A48BD1
:101EF000647B647B647B647B647B84AC84AC249C67
:101F00000494E4E544738431843184318431843130
:101F10006429C48B64CDA48B437B04E6E46A8431DA
:101F2000A439A439A439A439A439C462A4D50200BF
:101F3000637B24E6247384318431A439A439A43129
:101F40006429447B84D50000449C04E6E4DD0494C9
:101F5000A45A044A044A845A0494A4D544EEC341C2
:101F6000E4BCE4E584F644EE04E6E4E5E4E524E6D6
:101F700024EE64F6A4FEE36AE4BC44EEC4DDE4E5CA
:101F8000A4FEC4FEC4FEC4FEE4DDA4DDC4FEC36240
:101F9000249C64F664CD44CD84F6C4FEA4FEA4FE65
:101FA000E4BCE4DD44EE8331020004E644EEE4E503
:101FB00064F6A4FEC4FE44EEE4E5A4FE44C5E36A70
:101FC0002200234AE46A84CD44EEA4FEC4FE44F613
:101FD00064CDC462635A2200A310E4930300E49327
:101FE000E4BC84D584D504BD447B6331E493A31061
:101FF00000000000000000000404040404000400C9
:102000000A0A0A00000000000A0A1F0A1F0A0A0042
:10201000041E050E140F040003130804021918000F
:1020200002050502150916000C0C04020000000050
:10203000080402020204080002040808080402005E
:102040000004150E0E1504000004041F0404000013
:10205000000000000C0C04020000001F0000000043
:1020600000000000000C0C00001008040201000039
:102070000E11131519110E000406040404040E00B9
:102080000E11100E01011F001F10080C10110E0080
:10209000080C0A091F0808001F010F1010110E007C
:1020A0001C02010F11110E001F1010080402010084
:1020B0000E11110E11110E000E11111E1008070045
:1020C00000000400040000000000040004040200FA
:1020D000100804020408100000001F001F00000088
:1020E00002040810080402000E11100C0400040081
:1020F0000E11151D0D011E00040A11111F111100F2
:102100000F11110F11110F000E11010101110E001D
:102110000F11111111110F001F01010F01011F00FB
:102120001F01010F010101001E11010119111E0003
:102130001111111F111111000E04040404040E00EA
:102140001C08080808090600110905030509110003
:102150000101010101011F00111B151515111100CD
:1021600011111315191111000E11111111110E0079
:102170000F11110F010101000E11111115091600A7
:102180000F11110F050911000E11010E10110E0093
:102190001F150404040404001111111111110E0083
:1021A00011111111110A04001111111515150A0050
:1021B00011110A040A11110011110A040404040087
:1021C0001F10080E02011F001E02020202021E0062
:1021D00000010204081000001E10101010101E0054
:1021E000040A1100000000000000000000001F00B1
:1021F0000606040800000000000006080E091E0084
:1022000001010D1311130D0000000E1101110E003C
:10221000101016191119160000000E111F010E00E2
:102220000814040E0404040000000E191916100E00
:1022300001010D13111111000400060404040E0025
:10224000080008080809060001010905030509003E
:102250000604040404040E0000000B1515151500F7
:1022600000000D131111110000000E1111110E00CC
:1022700000000D13130D010100001619191610109E
:1022800000000D130101010000001E010E100F00DF
:1022900004041F0404140800000011111119160091
:1022A00000001111110A04000000111115150A0097
:1022B0000000110A040A1100000011111E10110E75
:1022C00000001F0804021F000804040204040800A0
:1022D00004040400040404000204040804040200CA
:1022E00002150800000000000000000000000000CF
:1022F00000000C12120C000000000C1E1E0C00004E
:1023000000001E12121E000000001E1E1E1E0000F5
:1023100000000C0C121E000000000C0C1E1E000021
:1023200000001E120C0C000000001E1E0C0C000011
:1023300000001816161800000000181E1E180000D5
:102340000000061A1A0600000000061E1E06000005
:1023500000000C12120C000000000C1E1E0C0000ED
:1023600000001E12121E000000001E1E1E1E000095
:10237000000000000000000000000000000000005D
:10238000000000000000000000000000000000004D
:10239000000000000000000000000000000000003D
:1023A00000008001800180018001800180018001A6
:1023B0008001800180018001800180010000000017
:1023C000800180010000000000000000000000000B
:1023D00000000000CC00CC00CC00CC00CC00CC0035
:1023E00000000000000000000000000000000000ED
:1023F00000000000000000000000000000000000DD
:10240000000000000000000000000000600C600CF4
:10241000600C30063006FE1FFE1F3006380718031A
:10242000FE1FFE1F180318038C018C018C01000095
:1024300000008000E003F80F9C0E8C1C8C188C00B0
:102440009800F801E007800E801C8C188C189C18EE
:10245000B80CF00FE00380008000000000000000D6
:102460000000000000000E181B0C110C11061106D4
:10247000110311039B018E01C038C06C604460449D
:10248000304430441844186C0C3800000000000040
:102490000000E001F0033807180618063003F001C9
:1024A000F000F8009C310E33061E061C061C063F89
:1024B000FC73F0210000000000000000000000009C
:1024C000000000000C000C000C000C000C000C00C4
:1024D00000000000000000000000000000000000FC
:1024E00000000000000000000000000000000000EC
:1024F0000000000200038001C000C0006000600016
:10250000300030003000300030003000300030004B
:1025100060006000C000C0008001000300020000F5
:10252000000020006000C000800180010003000363
:10253000000600060006000600060006000600066B
:102540000003000380018001C00060002000000043
:10255000000000000000000000000000C000C000FB
:10256000D806F807E001300338070000000000003B
:10257000000000000000000000000000000000005B
:102580000000000000000000000000008001800149
:10259000800180018001FC3FFC3F800180018001BF
:1025A0008001800100000000000000000000000029
:1025B000000000000000000000000000000000001B
:1025C000000000000000000000000000000000000B
:1025D0000000800180010001000180000000000077
:1025E00000000000000000000000000000000000EB
:1025F0000000000000000000E007E007000000000D
:1026000000000000000000000000000000000000CA
:1026100000000000000000000000000000000000BA
:1026200000000000000000000000000000000000AA
:102630000000C000C000000000000000000000001A
:102640000000000C000C000600060006000300035A
:1026500000038003800180018001C000C000C00031
:1026600060006000000000000000000000000000AA
:102670000000E003F007380E180C0C180C180C18AA
:102680000C180C180C180C180C180C18180C380E08
:10269000F007E00300000000000000000000000060
:1026A000000000018001C001F00198018801800153
:1026B0008001800180018001800180018001800112
:1026C0008001800100000000000000000000000008
:1026D0000000E003F80F180C0C180C180018001874
:1026E000000C000600038001C000600030001800EC
:1026F000FC1FFC1F000000000000000000000000A4
:102700000000E001F807180E0C0C0C0C000C000681
:10271000C003C007000C001800180C180C18180C87
:10272000F807E003000000000000000000000000C7
:102730000000000C000E000F000F800DC00C600C9C
:10274000600C300C180C0C0CFC3FFC3F000C000C17
:10275000000C000C00000000000000000000000061
:102760000000F80FF80F180018000C00EC03FC072D
:102770001C0E001C0018001800180C181C0C180E59
:10278000F807E00300000000000000000000000067
:102790000000C007F00F381C181818000C00CC03FC
:1027A000EC0F3C0E1C1C0C180C180C18181C380EC6
:1027B000F007E0030000000000000000000000003F
:1027C0000000FC1FFC1F000C000600060003800335
:1027D0008001C001C000E0006000600070003000B7
:1027E0003000300000000000000000000000000089
:1027F0000000E003F007380E180C180C180C38060F
:10280000F007F007180C0C180C180C180C18380CE2
:10281000F80FE003000000000000000000000000CE
:102820000000E003F007380E1C0C0C180C180C18F4
:102830001C1C381EF81BE0190018000C000C1C0EA4
:10284000F807F00100000000000000000000000098
:102850000000000000000000000000008001800176
:102860000000000000000000000000000000000068
:102870008001800100000000000000000000000056
:102880000000000000000000000000008001800146
:102890000000000000000000000000000000000038
:1028A00080018001000100018000000000000000A4
:1028B0000000000000000000000000000000000018
:1028C0000010001C800FE003F8001800F800E0037F
:1028D000800F001C0010000000000000000000003D
:1028E00000000000000000000000000000000000E8
:1028F000F81F000000000000F81F000000000000AA
:1029000000000000000000000000000000000000C7
:1029100000000000000000000000000000000000B7
:1029200008003800F001C007001F0018001FC00792
:10293000F001380008000000000000000000000066
:102940000000E003F80F180C0C180C180018000C0D
:10295000000600038001C000C000C00000000000AD
:10296000C000C000000000000000000000000000E7
:1029700000000000E00718180420C229224A114470
:1029800009440944094409221113E20C02400420BD
:102990001818E00700000000000000000000000020
:1029A000000080038003C006C006C006600C600CF7
:1029B000301830183018F83FF83F1C700C600C606D
:1029C00006C006C00000000000000000000000007B
:1029D0000000FC03FC0F0C0C0C180C180C180C0C51
:1029E000FC07FC0F0C180C300C300C300C300C18A1
:1029F000FC1FFC07000000000000000000000000B9
:102A00000000C007F01F38381C300C70066006004C
:102A10000600060006000600060006600C701C306A
:102A2000F01FE007000000000000000000000000B0
:102A30000000FE03FE0F060E0618061806300630CC
:102A40000630063006300630063006180618060E28
:102A5000FE0FFE0300000000000000000000000068
:102A60000000FC3FFC3F0C000C000C000C000C00B4
:102A7000FC1FFC1F0C000C000C000C000C000C00D8
:102A8000FC3FFC3F000000000000000000000000D0
:102A90000000F83FF83F1800180018001800180050
:102AA000F81FF81F18001800180018001800180068
:102AB00018001800000000000000000000000000E6
:102AC0000000E00FF83F3C780E6006E007C003000E
:102AD000030003FE03FE03C007C006C00EC03CF0A7
:102AE000F83FE00F000000000000000000000000C0
:102AF00000000C300C300C300C300C300C300C3032
:102B0000FC3FFC3F0C300C300C300C300C300C30E7
:102B10000C300C300000000000000000000000003D
:102B2000000080018001800180018001800180011E
:102B3000800180018001800180018001800180018D
:102B40008001800100000000000000000000000083
:102B5000000000060006000600060006000600064B
:102B600000060006000600060006180618063807CC
:102B7000F003E00100000000000000000000000081
:102B8000000006300618060C060606038601C6007D
:102B900066007600DE008E0106030606060C0618A7
:102BA0000630066000000000000000000000000089
:102BB000000018001800180018001800180018006D
:102BC0001800180018001800180018001800180045
:102BD000F81FF81F000000000000000000000000C7
:102BE00000000EE01EF01EF01EF036D836D836D8A3
:102BF00036D866CC66CC66CCC6C6C6C6C6C6C6C601
:102C000086C386C300000000000000000000000032
:102C100000000C301C303C303C306C306C30CC3020
:102C2000CC308C310C330C330C360C360C3C0C3C59
:102C30000C380C3000000000000000000000000014
:102C40000000E007F81F1C380E70066003C003C0C8
:102C500003C003C003C003C003C006600E701C386D
:102C6000F81FE00700000000000000000000000066
:102C70000000FC0FFC1F0C380C300C300C300C30FA
:102C80000C18FC1FFC070C000C000C000C000C00C6
:102C90000C000C000000000000000000000000001C
:102CA0000000E007F81F1C380E70066003E003C048
:102CB00003C003C003C003C007E006630E3F1C3C13
:102CC000F83FE0F700C00000000000000000000036
:102CD0000000FE0FFE1F06380630063006300638AC
:102CE000FE1FFE0706030606060C06180618063029
:102CF0000630066000000000000000000000000038
:102D00000000E003F80F1C0C0C180C180C001C0041
:102D1000F803E00F001E0038063006300E301C1C91
:102D2000F80FE007000000000000000000000000B5
:102D30000000FE7FFE7F8001800180018001800114
:102D4000800180018001800180018001800180017B
:102D50008001800100000000000000000000000071
:102D600000000C300C300C300C300C300C300C30BF
:102D70000C300C300C300C300C300C300C3018187F
:102D8000F81FE00700000000000000000000000045
:102D9000000003600630063006300C180C180C18C2
:102DA000180C180C380E30063006700760036003EC
:102DB000C001C00100000000000000000000000091
:102DC00000000360C361C361C36166336633663369
:102DD0006633663366336C1B6C1B6C1B2C1A3C1EF3
:102DE000380E380E00000000000000000000000057
:102DF00000000FE00C7018303018700C600EC00727
:102E000080038003C003E006700C301C18180C30DF
:102E10000E6007E00000000000000000000000005D
:102E2000000003C006600C301C383818300C6006F7
:102E3000E007C003800180018001800180018001E2
:102E40008001800100000000000000000000000080
:102E50000000FC7FFC7F006000300018000C0006C2
:102E600000038001C0006000300018000C00060064
:102E7000FE7FFE7F00000000000000000000000058
:102E80000000E003E003600060006000600060009C
:102E90006000600060006000600060006000600032
:102EA00060006000600060006000E003E00300007C
:102EB000000030003000600060006000C000C00012
:102EC000C000C001800180018001000300030003F5
:102ED00000060006000000000000000000000000E6
:102EE0000000E003E003000300030003000300030D
:102EF00000030003000300030003000300030003BA
:102F000000030003000300030003E003E0030000EC
:102F100000000000C001C0016003600360033006D0
:102F20003006180C180C0000000000000000000023
:102F30000000000000000000000000000000000091
:102F40000000000000000000000000000000000081
:102F50000000000000000000000000000000000071
:102F60000000FFFFFFFF0000000000000000000065
:102F700000000C000C000C000C000C000C00000009
:102F80000000000000000000000000000000000041
:102F90000000000000000000000000000000000031
:102FA000000000000000000000000000F003F8072F
:102FB0001C0C0C0C000FF00FF80C0C0C0C0C1C0F64
:102FC000F80FF018000000000000000000000000F2
:102FD000000018001800180018001800D803F80F97
:102FE000380C181818181818181818181818380C39
:102FF000F80FD803000000000000000000000000EF
:10300000000000000000000000000000C003F00706
:10301000300E180C1800180018001800180C300E8C
:10302000F007C003000000000000000000000000E6
:10303000000000180018001800180018C01BF01F2E
:10304000301C181818181818181818181818301CC8
:10305000F01FC01B00000000000000000000000086
:10306000000000000000000000000000C003F00F9E
:10307000300C1818F81FF81F180018003818301CEA
:10308000F00FC0070000000000000000000000007A
:103090000000800FC00FC000C000C000F007F007A4
:1030A000C000C000C000C000C000C000C000C00020
:1030B000C000C00000000000000000000000000090
:1030C000000000000000000000000000E00DF80F0C
:1030D000180E0C0C0C0C0C0C0C0C0C0C0C0C180E14
:1030E000F80FE00D000C0C0C1C06F807F0010000B6
:1030F000000018001800180018001800D807F80F72
:10310000381C18181818181818181818181818181B
:10311000181818180000000000000000000000004F
:103120000000C000C000000000000000C000C0009F
:10313000C000C000C000C000C000C000C000C0008F
:10314000C000C000000000000000000000000000FF
:103150000000C000C000000000000000C000C0006F
:10316000C000C000C000C000C000C000C000C0005F
:10317000C000C000C000C000C000F800780000001F
:1031800000000C000C000C000C000C000C0C0C06D9
:103190000C038C01CC006C00FC009C018C030C0324
:1031A0000C060C0C000000000000000000000000F5
:1031B0000000C000C000C000C000C000C000C000CF
:1031C000C000C000C000C000C000C000C000C000FF
:1031D000C000C0000000000000000000000000006F
:1031E0000000000000000000000000007C3CFF7EAA
:1031F000C7E383C183C183C183C183C183C183C149
:1032000083C183C100000000000000000000000036
:103210000000000000000000000000009807F80F08
:10322000381C1818181818181818181818181818FA
:10323000181818180000000000000000000000002E
:10324000000000000000000000000000C003F00FBC
:10325000300C181818181818181818181818300CD6
:10326000F00FC0030000000000000000000000009C
:10327000000000000000000000000000D803F80F6C
:10328000380C181818181818181818181818380C96
:10329000F80FD803180018001800180018000000D4
:1032A000000000000000000000000000C01BF01F34
:1032B000301C181818181818181818181818301C56
:1032C000F01FC01B0018001800180018001800009C
:1032D000000000000000000000000000B007F00344
:1032E000700030003000300030003000300030001E
:1032F000300030000000000000000000000000006E
:10330000000000000000000000000000E003F003E7
:10331000380E180C3800F003C007000C180C380EDB
:10332000F007E003000000000000000000000000C3
:10333000000000008000C000C000C000F007F007DF
:10334000C000C000C000C000C000C000C000C0007D
:10335000C00780070000000000000000000000001F
:1033600000000000000000000000000018181818FD
:103370001818181818181818181818181818381CA9
:10338000F01FE01900000000000000000000000035
:103390000000000000000000000000000C18180CE5
:1033A000180C180C3006300630066003600360030A
:1033B000C001C0010000000000000000000000008B
:1033C000000000000000000000000000C141C141F9
:1033D000C3616363636363633636363636361C1CFB
:1033E0001C1C1C1C0000000000000000000000006D
:1033F0000000000000000000000000001C38381C25
:10340000300C6006C003C003C003C0036006300C6C
:10341000381C1C3800000000000000000000000004
:10342000000000000000000000000000183030180C
:1034300030187018600C600CE00CC006C0068003E9
:103440008003800380018001C001F0007000000053
:10345000000000000000000000000000FC1FFC1F36
:10346000000C000600038001C0006000300018005E
:10347000FC1FFC1F00000000000000000000000016
:10348000000000038001C000C000C000C000C000F8
:10349000C00060006000300060004000C000C0005C
:1034A000C000C000C000C000800100030000000098
:1034B0000000800180018001800180018001800185
:1034C00080018001800180018001800180018001F4
:1034D0008001800180018001800180018001000065
:1034E00000006000C000C0018001800180018001F7
:1034F0008001000300030006000300018001800139
:103500008001800180018001C00060000000000097
:1035100000000000000000000000000000000000AB
:10352000F010F81F080F000000000000000000006D
:10353000000000000000000000000000000000008B
:10354000000000000000000000000000000000007B
:10355000000000000000000000000000000000006B
:10356000000000000000000000000000000000005B
:1035700000000000000000000000C003300C081034
:103580000420042002400240024002400240042085
:1035900004200810300CC0030000000000000000F0
:1035A00000000000000000000000C003F00FF81F42
:1035B000FC3FFC3FFE7FFE7FFE7FFE7FFE7FFC3FE9
:1035C000FC3FF81FF00FC0030000000000000000E7
:1035D0000000000000000000000000000000E00704
:1035E000F00F181818181818181818181818F00FBD
:1035F000E0070000000000000000000000000000E4
:103600000000000000000000000000000000E007D3
:10361000F00FF81FF81FF81FF81FF81FF81FF00F22
:10362000E0070000000000000000000000000000B3
:10363000000000000000000000000000000000008A
:1036400000000000000000008001C0036006300C94
:1036500018181818F81FF81F0000000000000000DC
:10366000000000000000000000000000000000005A
:1036700000000000000000008001C003E007F00F20
:10368000F81FF81FF81FF81F0000000000000000DE
:103690000000000000000000F81FF81F181818189C
:1036A000300C6006C0038001000000000000000034
:1036B000000000000000000000000000000000000A
:1036C0000000000000000000F81FF81FF81FF81F9E
:1036D000F00FE007C00380010000000000000000C0
:1036E00000000000000000000000000000000000DA
:1036F0000000000000000000000000000000E001E9
:10370000F00198018C01860186018C019801F0017D
:10371000E0010000000000000000000000000000C8
:103720000000000000000000000000000000E001B8
:10373000F001F801FC01FE01FE01FC01F801F001BD
:10374000E001000000000000000000000000000098
:1037500000000000000000000000000000008007E2
:10376000800F801980318061806180318019800FE5
:1037700080070000000000000000000000000000C2
:1037800000000000000000000000000000008007B2
:10379000800F801F803F807F807F803F801F800F51
:1037A0008007000000000000000000000000000092
:1037B0000000C0012002200240013006080808086D
:1037C0000808080808080808080820022002200243
:1037D00020022002200220022002200220020000FB
:1037E0000000C001E003E003C001F007D80DD80DD0
:1037F000D80DD80DD80DD80DD80D60036003600327
:103800006003600360036003600360036003000003
:103810000000C0012002200240013006080808080C
:103820000808041002200220400120022002100497
:1038300008080808041004100420044000000000D8
:103840000000C001E003E003C001F007D80DD80D6F
:10385000D80DCC19C631C261C00160036003700687
:10386000380C180C0C180C180C300C600000000000
:10387000060008002000000070000000F01F000893
:1038800010001800200000007000000070230008E5
:10389000B038000800000020480000005C1000085C
:1038A000F838000848000020000400006C100008F0
:1038B00032000000000000000000000014000000C2
:1038C0000100000001000000000000000000C040F6
:1038D00000000000000000000000FFFF00000000EA
:1038E0000000000000A24A040000000000000000E8
:0838F0000102030406070809A8
:0400000508000145A9
:00000001FF
